{
  "contractName": "LoanRequestPlatform",
  "abi": [
    {
      "constant": true,
      "inputs": [
        {
          "name": "",
          "type": "uint256"
        }
      ],
      "name": "contracts",
      "outputs": [
        {
          "name": "",
          "type": "address"
        }
      ],
      "payable": false,
      "stateMutability": "view",
      "type": "function",
      "signature": "0x474da79a"
    },
    {
      "constant": true,
      "inputs": [],
      "name": "owner",
      "outputs": [
        {
          "name": "",
          "type": "address"
        }
      ],
      "payable": false,
      "stateMutability": "view",
      "type": "function",
      "signature": "0x8da5cb5b"
    },
    {
      "constant": true,
      "inputs": [],
      "name": "randval",
      "outputs": [
        {
          "name": "",
          "type": "int256"
        }
      ],
      "payable": false,
      "stateMutability": "view",
      "type": "function",
      "signature": "0xa36f61a9"
    },
    {
      "inputs": [],
      "payable": false,
      "stateMutability": "nonpayable",
      "type": "constructor",
      "signature": "constructor"
    },
    {
      "constant": true,
      "inputs": [
        {
          "name": "_contract",
          "type": "address"
        }
      ],
      "name": "extractLoanRequestContractData",
      "outputs": [
        {
          "name": "",
          "type": "address"
        },
        {
          "name": "",
          "type": "uint256"
        },
        {
          "name": "",
          "type": "uint256"
        },
        {
          "name": "",
          "type": "string"
        },
        {
          "name": "",
          "type": "string"
        },
        {
          "name": "",
          "type": "uint256"
        }
      ],
      "payable": false,
      "stateMutability": "view",
      "type": "function",
      "signature": "0x022ba0a8"
    },
    {
      "constant": false,
      "inputs": [
        {
          "name": "_reason",
          "type": "string"
        },
        {
          "name": "_repaymentPlan",
          "type": "string"
        },
        {
          "name": "_amountRequested",
          "type": "uint256"
        },
        {
          "name": "_phoneNumber",
          "type": "uint256"
        }
      ],
      "name": "requestLoan",
      "outputs": [],
      "payable": false,
      "stateMutability": "nonpayable",
      "type": "function",
      "signature": "0x80d26be8"
    },
    {
      "constant": true,
      "inputs": [],
      "name": "getYourLoanRequestContracts",
      "outputs": [
        {
          "name": "",
          "type": "address[]"
        }
      ],
      "payable": false,
      "stateMutability": "view",
      "type": "function",
      "signature": "0x19291965"
    },
    {
      "constant": false,
      "inputs": [
        {
          "name": "_contract",
          "type": "address"
        }
      ],
      "name": "sendPayment",
      "outputs": [],
      "payable": true,
      "stateMutability": "payable",
      "type": "function",
      "signature": "0x8a7644a8"
    },
    {
      "constant": false,
      "inputs": [
        {
          "name": "_contract",
          "type": "address"
        }
      ],
      "name": "repayLoan",
      "outputs": [],
      "payable": true,
      "stateMutability": "payable",
      "type": "function",
      "signature": "0x190ef1e6"
    }
  ],
  "bytecode": "0x6080604052600560035534801561001557600080fd5b50336000806101000a81548173ffffffffffffffffffffffffffffffffffffffff021916908373ffffffffffffffffffffffffffffffffffffffff160217905550611d19806100656000396000f3fe60806040526004361062000097576000357c0100000000000000000000000000000000000000000000000000000000900463ffffffff168063022ba0a8146200009c578063190ef1e6146200022457806319291965146200026b578063474da79a14620002dc57806380d26be8146200035b5780638a7644a814620004d85780638da5cb5b146200051f578063a36f61a91462000579575b600080fd5b348015620000a957600080fd5b50620000ef60048036036020811015620000c257600080fd5b81019080803573ffffffffffffffffffffffffffffffffffffffff169060200190929190505050620005a7565b604051808773ffffffffffffffffffffffffffffffffffffffff1673ffffffffffffffffffffffffffffffffffffffff1681526020018681526020018581526020018060200180602001848152602001838103835286818151815260200191508051906020019080838360005b83811015620001795780820151818401526020810190506200015c565b50505050905090810190601f168015620001a75780820380516001836020036101000a031916815260200191505b50838103825285818151815260200191508051906020019080838360005b83811015620001e2578082015181840152602081019050620001c5565b50505050905090810190601f168015620002105780820380516001836020036101000a031916815260200191505b509850505050505050505060405180910390f35b62000269600480360360208110156200023c57600080fd5b81019080803573ffffffffffffffffffffffffffffffffffffffff16906020019092919050505062000aa3565b005b3480156200027857600080fd5b506200028362000b2b565b6040518080602001828103825283818151815260200191508051906020019060200280838360005b83811015620002c8578082015181840152602081019050620002ab565b505050509050019250505060405180910390f35b348015620002e957600080fd5b5062000319600480360360208110156200030257600080fd5b810190808035906020019092919050505062000bf8565b604051808273ffffffffffffffffffffffffffffffffffffffff1673ffffffffffffffffffffffffffffffffffffffff16815260200191505060405180910390f35b3480156200036857600080fd5b50620004d6600480360360808110156200038157600080fd5b81019080803590602001906401000000008111156200039f57600080fd5b820183602082011115620003b257600080fd5b80359060200191846001830284011164010000000083111715620003d557600080fd5b91908080601f016020809104026020016040519081016040528093929190818152602001838380828437600081840152601f19601f820116905080830192505050505050509192919290803590602001906401000000008111156200043957600080fd5b8201836020820111156200044c57600080fd5b803590602001918460018302840111640100000000831117156200046f57600080fd5b91908080601f016020809104026020016040519081016040528093929190818152602001838380828437600081840152601f19601f820116905080830192505050505050509192919290803590602001909291908035906020019092919050505062000c37565b005b6200051d60048036036020811015620004f057600080fd5b81019080803573ffffffffffffffffffffffffffffffffffffffff16906020019092919050505062000eef565b005b3480156200052c57600080fd5b506200053762000f77565b604051808273ffffffffffffffffffffffffffffffffffffffff1673ffffffffffffffffffffffffffffffffffffffff16815260200191505060405180910390f35b3480156200058657600080fd5b506200059162000f9c565b6040518082815260200191505060405180910390f35b600080600060608060003373ffffffffffffffffffffffffffffffffffffffff166000809054906101000a900473ffffffffffffffffffffffffffffffffffffffff1673ffffffffffffffffffffffffffffffffffffffff161415156200060d57600080fd5b60008790508073ffffffffffffffffffffffffffffffffffffffff166304c73a4b6040518163ffffffff167c010000000000000000000000000000000000000000000000000000000002815260040160206040518083038186803b1580156200067557600080fd5b505afa1580156200068a573d6000803e3d6000fd5b505050506040513d6020811015620006a157600080fd5b81019080805190602001909291905050508173ffffffffffffffffffffffffffffffffffffffff1663c628d3f86040518163ffffffff167c010000000000000000000000000000000000000000000000000000000002815260040160206040518083038186803b1580156200071557600080fd5b505afa1580156200072a573d6000803e3d6000fd5b505050506040513d60208110156200074157600080fd5b81019080805190602001909291905050508273ffffffffffffffffffffffffffffffffffffffff16630a1b66326040518163ffffffff167c010000000000000000000000000000000000000000000000000000000002815260040160206040518083038186803b158015620007b557600080fd5b505afa158015620007ca573d6000803e3d6000fd5b505050506040513d6020811015620007e157600080fd5b81019080805190602001909291905050508373ffffffffffffffffffffffffffffffffffffffff1663e134e33d6040518163ffffffff167c010000000000000000000000000000000000000000000000000000000002815260040160006040518083038186803b1580156200085557600080fd5b505afa1580156200086a573d6000803e3d6000fd5b505050506040513d6000823e3d601f19601f8201168201806040525060208110156200089557600080fd5b810190808051640100000000811115620008ae57600080fd5b82810190506020810184811115620008c557600080fd5b8151856001820283011164010000000082111715620008e357600080fd5b50509291905050508473ffffffffffffffffffffffffffffffffffffffff1663fa162aff6040518163ffffffff167c010000000000000000000000000000000000000000000000000000000002815260040160006040518083038186803b1580156200094e57600080fd5b505afa15801562000963573d6000803e3d6000fd5b505050506040513d6000823e3d601f19601f8201168201806040525060208110156200098e57600080fd5b810190808051640100000000811115620009a757600080fd5b82810190506020810184811115620009be57600080fd5b8151856001820283011164010000000082111715620009dc57600080fd5b50509291905050508573ffffffffffffffffffffffffffffffffffffffff1663b67606d36040518163ffffffff167c010000000000000000000000000000000000000000000000000000000002815260040160206040518083038186803b15801562000a4757600080fd5b505afa15801562000a5c573d6000803e3d6000fd5b505050506040513d602081101562000a7357600080fd5b81019080805190602001909291905050508595508292508191509650965096509650965096505091939550919395565b60008190508073ffffffffffffffffffffffffffffffffffffffff1663f966ade7346040518263ffffffff167c01000000000000000000000000000000000000000000000000000000000281526004016000604051808303818588803b15801562000b0d57600080fd5b505af115801562000b22573d6000803e3d6000fd5b50505050505050565b6060600260003373ffffffffffffffffffffffffffffffffffffffff1673ffffffffffffffffffffffffffffffffffffffff16815260200190815260200160002080548060200260200160405190810160405280929190818152602001828054801562000bee57602002820191906000526020600020905b8160009054906101000a900473ffffffffffffffffffffffffffffffffffffffff1673ffffffffffffffffffffffffffffffffffffffff168152602001906001019080831162000ba3575b5050505050905090565b60018181548110151562000c0857fe5b906000526020600020016000915054906101000a900473ffffffffffffffffffffffffffffffffffffffff1681565b60008060009054906101000a900473ffffffffffffffffffffffffffffffffffffffff16338686868662000c6a62000fa2565b808773ffffffffffffffffffffffffffffffffffffffff1673ffffffffffffffffffffffffffffffffffffffff1681526020018673ffffffffffffffffffffffffffffffffffffffff1673ffffffffffffffffffffffffffffffffffffffff1681526020018060200180602001858152602001848152602001838103835287818151815260200191508051906020019080838360005b8381101562000d1d57808201518184015260208101905062000d00565b50505050905090810190601f16801562000d4b5780820380516001836020036101000a031916815260200191505b50838103825286818151815260200191508051906020019080838360005b8381101562000d8657808201518184015260208101905062000d69565b50505050905090810190601f16801562000db45780820380516001836020036101000a031916815260200191505b5098505050505050505050604051809103906000f08015801562000ddc573d6000803e3d6000fd5b50905060018190806001815401808255809150509060018203906000526020600020016000909192909190916101000a81548173ffffffffffffffffffffffffffffffffffffffff021916908373ffffffffffffffffffffffffffffffffffffffff16021790555050600260003373ffffffffffffffffffffffffffffffffffffffff1673ffffffffffffffffffffffffffffffffffffffff1681526020019081526020016000208190806001815401808255809150509060018203906000526020600020016000909192909190916101000a81548173ffffffffffffffffffffffffffffffffffffffff021916908373ffffffffffffffffffffffffffffffffffffffff160217905550505050505050565b60008190508073ffffffffffffffffffffffffffffffffffffffff16636720ceb1346040518263ffffffff167c01000000000000000000000000000000000000000000000000000000000281526004016000604051808303818588803b15801562000f5957600080fd5b505af115801562000f6e573d6000803e3d6000fd5b50505050505050565b6000809054906101000a900473ffffffffffffffffffffffffffffffffffffffff1681565b60035481565b604051610d3a8062000fb48339019056fe60806040523480156200001157600080fd5b5060405162000d3a38038062000d3a833981018060405260c08110156200003757600080fd5b81019080805190602001909291908051906020019092919080516401000000008111156200006457600080fd5b828101905060208101848111156200007b57600080fd5b81518560018202830111640100000000821117156200009957600080fd5b50509291906020018051640100000000811115620000b657600080fd5b82810190506020810184811115620000cd57600080fd5b8151856001820283011164010000000082111715620000eb57600080fd5b5050929190602001805190602001909291908051906020019092919050505085600060016101000a81548173ffffffffffffffffffffffffffffffffffffffff021916908373ffffffffffffffffffffffffffffffffffffffff16021790555084600160006101000a81548173ffffffffffffffffffffffffffffffffffffffff021916908373ffffffffffffffffffffffffffffffffffffffff1602179055508360029080519060200190620001a4929190620001fc565b508260039080519060200190620001bd929190620001fc565b50816005819055508060068190555060008060006101000a81548160ff02191690836002811115620001eb57fe5b0217905550505050505050620002ab565b828054600181600116156101000203166002900490600052602060002090601f016020900481019282601f106200023f57805160ff191683800117855562000270565b8280016001018555821562000270579182015b828111156200026f57825182559160200191906001019062000252565b5b5090506200027f919062000283565b5090565b620002a891905b80821115620002a45760008160009055506001016200028a565b5090565b90565b610a7f80620002bb6000396000f3fe6080604052600436106100c5576000357c0100000000000000000000000000000000000000000000000000000000900463ffffffff16806304c73a4b146100ca5780630a1b6632146101215780630c3f6acf1461014c5780636720ceb114610185578063747f33801461018f5780637b5c5883146101ba5780638da5cb5b14610209578063b67606d314610260578063c628d3f81461028b578063d56f011a146102b6578063e134e33d14610331578063f966ade7146103c1578063fa162aff146103cb575b600080fd5b3480156100d657600080fd5b506100df61045b565b604051808273ffffffffffffffffffffffffffffffffffffffff1673ffffffffffffffffffffffffffffffffffffffff16815260200191505060405180910390f35b34801561012d57600080fd5b50610136610481565b6040518082815260200191505060405180910390f35b34801561015857600080fd5b50610161610487565b6040518082600281111561017157fe5b60ff16815260200191505060405180910390f35b61018d610499565b005b34801561019b57600080fd5b506101a46106b3565b6040518082815260200191505060405180910390f35b3480156101c657600080fd5b506101f3600480360360208110156101dd57600080fd5b81019080803590602001909291905050506106b9565b6040518082815260200191505060405180910390f35b34801561021557600080fd5b5061021e6106dc565b604051808273ffffffffffffffffffffffffffffffffffffffff1673ffffffffffffffffffffffffffffffffffffffff16815260200191505060405180910390f35b34801561026c57600080fd5b50610275610702565b6040518082815260200191505060405180910390f35b34801561029757600080fd5b506102a061070f565b6040518082815260200191505060405180910390f35b3480156102c257600080fd5b506102ef600480360360208110156102d957600080fd5b8101908080359060200190929190505050610715565b604051808273ffffffffffffffffffffffffffffffffffffffff1673ffffffffffffffffffffffffffffffffffffffff16815260200191505060405180910390f35b34801561033d57600080fd5b50610346610753565b6040518080602001828103825283818151815260200191508051906020019080838360005b8381101561038657808201518184015260208101905061036b565b50505050905090810190601f1680156103b35780820380516001836020036101000a031916815260200191505b509250505060405180910390f35b6103c96107f1565b005b3480156103d757600080fd5b506103e06109b5565b6040518080602001828103825283818151815260200191508051906020019080838360005b83811015610420578082015181840152602081019050610405565b50505050905090810190601f16801561044d5780820380516001836020036101000a031916815260200191505b509250505060405180910390f35b600160009054906101000a900473ffffffffffffffffffffffffffffffffffffffff1681565b60045481565b6000809054906101000a900460ff1681565b600060028111156104a657fe5b6000809054906101000a900460ff1660028111156104c057fe5b1415156104cc57600080fd5b6000341115156104db57600080fd5b6004546005540334111515156104f057600080fd5b34600460008282540192505081905550600060646003340281151561051157fe5b0490506000813403905060073390806001815401808255809150509060018203906000526020600020016000909192909190916101000a81548173ffffffffffffffffffffffffffffffffffffffff021916908373ffffffffffffffffffffffffffffffffffffffff160217905550506008349080600181540180825580915050906001820390600052602060002001600090919290919091505550600160009054906101000a900473ffffffffffffffffffffffffffffffffffffffff1673ffffffffffffffffffffffffffffffffffffffff166108fc829081150290604051600060405180830381858888f19350505050158015610615573d6000803e3d6000fd5b50600060019054906101000a900473ffffffffffffffffffffffffffffffffffffffff1673ffffffffffffffffffffffffffffffffffffffff166108fc839081150290604051600060405180830381858888f1935050505015801561067e573d6000803e3d6000fd5b5060055460045414156106af5760016000806101000a81548160ff021916908360028111156106a957fe5b02179055505b5050565b60065481565b6008818154811015156106c857fe5b906000526020600020016000915090505481565b600060019054906101000a900473ffffffffffffffffffffffffffffffffffffffff1681565b6000600780549050905090565b60055481565b60078181548110151561072457fe5b906000526020600020016000915054906101000a900473ffffffffffffffffffffffffffffffffffffffff1681565b60028054600181600116156101000203166002900480601f0160208091040260200160405190810160405280929190818152602001828054600181600116156101000203166002900480156107e95780601f106107be576101008083540402835291602001916107e9565b820191906000526020600020905b8154815290600101906020018083116107cc57829003601f168201915b505050505081565b600160009054906101000a900473ffffffffffffffffffffffffffffffffffffffff1673ffffffffffffffffffffffffffffffffffffffff163373ffffffffffffffffffffffffffffffffffffffff1614151561084d57600080fd5b6001600281111561085a57fe5b6000809054906101000a900460ff16600281111561087457fe5b14151561088057600080fd5b6005543414151561089057600080fd5b60008090505b600780549050811015610949576007818154811015156108b257fe5b9060005260206000200160009054906101000a900473ffffffffffffffffffffffffffffffffffffffff1673ffffffffffffffffffffffffffffffffffffffff166108fc60088381548110151561090557fe5b90600052602060002001549081150290604051600060405180830381858888f1935050505015801561093b573d6000803e3d6000fd5b508080600101915050610896565b507fd0e40251d5411139d5a601946ad43ee7814fb5bc4a42d76731fc4df5c94f4700600554600780549050604051808381526020018281526020019250505060405180910390a160026000806101000a81548160ff021916908360028111156109ae57fe5b0217905550565b60038054600181600116156101000203166002900480601f016020809104026020016040519081016040528092919081815260200182805460018160011615610100020316600290048015610a4b5780601f10610a2057610100808354040283529160200191610a4b565b820191906000526020600020905b815481529060010190602001808311610a2e57829003601f168201915b50505050508156fea165627a7a72305820ef569530b6f457518d6504b23d2a6cf7a3bd232f81fea9aa2db21b06232aa2f00029a165627a7a723058202257a6b8980946b33aadd295014d55ccca18e21f70181ac9591d01c6cdbf83780029",
  "source": "pragma solidity ^0.5.0;\n\n\nimport \"./LoanRequest.sol\";\n\ncontract LoanRequestPlatform {\n\n    // master escrow\n    address payable public owner;\n\n    // all the loan request contracts\n    LoanRequest[] public contracts;\n\n    // mapping between user and their loans\n    mapping(address => LoanRequest[]) internal loanRequestMapping;\n\n     int public randval = 5;\n\n\n    modifier ownerOnly() {\n        require(owner == msg.sender);\n        _;\n    }\n\n\n    constructor() public {\n        owner = msg.sender;\n    }\n\n    // for displaying all the contracts on the UI\n    function extractLoanRequestContractData(address _contract) view public ownerOnly returns (address, uint, uint, string memory, string memory, uint){\n\n        LoanRequest lr = LoanRequest(_contract);\n\n        // requestee -> to display on UI and so when a person wants to loan money, we know the destination address\n        return (lr.requestee(), lr.amountRequested(), lr.amountAccumulated(), lr.reason(), lr.repaymentPlan(), lr.numLoaners());\n\n    }\n\n\n    function requestLoan(string memory _reason, string memory _repaymentPlan, uint _amountRequested, uint _phoneNumber) public {\n        // create a new requestloan contract\n        LoanRequest lr = new LoanRequest(owner, msg.sender, _reason, _repaymentPlan, _amountRequested, _phoneNumber);\n        contracts.push(lr);\n        // record that this sender has created a loan\n        loanRequestMapping[msg.sender].push(lr);\n    }\n\n    // when on home page and you call this, gets a list of all your contract addresses. loop through each and get the contract data\n    function getYourLoanRequestContracts() view public returns(LoanRequest[] memory) {\n        return loanRequestMapping[msg.sender];\n    }\n\n    // functions below are just calls to the LoanRequest contract\n    function sendPayment(address _contract) payable public {\n        LoanRequest lr = LoanRequest(_contract);\n        lr.sendPayment.value(msg.value)(); // transfer fund from this contract to the loan request\n\n    }\n\n    function repayLoan(address _contract) payable public {\n        LoanRequest lr = LoanRequest(_contract);\n        lr.repayLoan.value(msg.value)(); // transfer fund from this contract to the loan request\n    }\n\n\n}\n",
  "sourcePath": "/Users/labuser/WebstormProjects/jiraniweb/contracts/LoanRequestPlatform.sol",
  "compiler": {
    "name": "solc",
    "version": "0.5.0+commit.1d4f565a.Emscripten.clang"
  },
  "schemaVersion": "3.0.2",
  "updatedAt": "2019-03-25T18:31:24.876Z",
  "devdoc": {
    "methods": {}
  },
  "userdoc": {
    "methods": {}
  }
}