{
  "contractName": "LoanRequest",
  "abi": [
    {
      "constant": true,
      "inputs": [],
      "name": "requestee",
      "outputs": [
        {
          "name": "",
          "type": "address"
        }
      ],
      "payable": false,
      "stateMutability": "view",
      "type": "function"
    },
    {
      "constant": true,
      "inputs": [],
      "name": "amountAccumulated",
      "outputs": [
        {
          "name": "",
          "type": "uint256"
        }
      ],
      "payable": false,
      "stateMutability": "view",
      "type": "function"
    },
    {
      "constant": true,
      "inputs": [],
      "name": "currentState",
      "outputs": [
        {
          "name": "",
          "type": "uint8"
        }
      ],
      "payable": false,
      "stateMutability": "view",
      "type": "function"
    },
    {
      "constant": true,
      "inputs": [],
      "name": "phoneNumber",
      "outputs": [
        {
          "name": "",
          "type": "uint256"
        }
      ],
      "payable": false,
      "stateMutability": "view",
      "type": "function"
    },
    {
      "constant": true,
      "inputs": [
        {
          "name": "",
          "type": "uint256"
        }
      ],
      "name": "loanerAmounts",
      "outputs": [
        {
          "name": "",
          "type": "uint256"
        }
      ],
      "payable": false,
      "stateMutability": "view",
      "type": "function"
    },
    {
      "constant": true,
      "inputs": [],
      "name": "owner",
      "outputs": [
        {
          "name": "",
          "type": "address"
        }
      ],
      "payable": false,
      "stateMutability": "view",
      "type": "function"
    },
    {
      "constant": true,
      "inputs": [],
      "name": "amountRequested",
      "outputs": [
        {
          "name": "",
          "type": "uint256"
        }
      ],
      "payable": false,
      "stateMutability": "view",
      "type": "function"
    },
    {
      "constant": true,
      "inputs": [
        {
          "name": "",
          "type": "uint256"
        }
      ],
      "name": "loaners",
      "outputs": [
        {
          "name": "",
          "type": "address"
        }
      ],
      "payable": false,
      "stateMutability": "view",
      "type": "function"
    },
    {
      "constant": true,
      "inputs": [],
      "name": "reason",
      "outputs": [
        {
          "name": "",
          "type": "string"
        }
      ],
      "payable": false,
      "stateMutability": "view",
      "type": "function"
    },
    {
      "constant": true,
      "inputs": [],
      "name": "repaymentPlan",
      "outputs": [
        {
          "name": "",
          "type": "string"
        }
      ],
      "payable": false,
      "stateMutability": "view",
      "type": "function"
    },
    {
      "inputs": [
        {
          "name": "_owner",
          "type": "address"
        },
        {
          "name": "_requestee",
          "type": "address"
        },
        {
          "name": "_reason",
          "type": "string"
        },
        {
          "name": "_repaymentPlan",
          "type": "string"
        },
        {
          "name": "_amountRequested",
          "type": "uint256"
        },
        {
          "name": "_phoneNumber",
          "type": "uint256"
        }
      ],
      "payable": false,
      "stateMutability": "nonpayable",
      "type": "constructor"
    },
    {
      "anonymous": false,
      "inputs": [
        {
          "indexed": false,
          "name": "amountRequested",
          "type": "uint256"
        },
        {
          "indexed": false,
          "name": "numLoaners",
          "type": "uint256"
        }
      ],
      "name": "LoanPaidOff",
      "type": "event"
    },
    {
      "constant": false,
      "inputs": [],
      "name": "sendPayment",
      "outputs": [],
      "payable": true,
      "stateMutability": "payable",
      "type": "function"
    },
    {
      "constant": false,
      "inputs": [],
      "name": "repayLoan",
      "outputs": [],
      "payable": true,
      "stateMutability": "payable",
      "type": "function"
    },
    {
      "constant": true,
      "inputs": [],
      "name": "numLoaners",
      "outputs": [
        {
          "name": "",
          "type": "uint256"
        }
      ],
      "payable": false,
      "stateMutability": "view",
      "type": "function"
    }
  ],
  "bytecode": "0x60806040523480156200001157600080fd5b5060405162000d3a38038062000d3a833981018060405260c08110156200003757600080fd5b81019080805190602001909291908051906020019092919080516401000000008111156200006457600080fd5b828101905060208101848111156200007b57600080fd5b81518560018202830111640100000000821117156200009957600080fd5b50509291906020018051640100000000811115620000b657600080fd5b82810190506020810184811115620000cd57600080fd5b8151856001820283011164010000000082111715620000eb57600080fd5b5050929190602001805190602001909291908051906020019092919050505085600060016101000a81548173ffffffffffffffffffffffffffffffffffffffff021916908373ffffffffffffffffffffffffffffffffffffffff16021790555084600160006101000a81548173ffffffffffffffffffffffffffffffffffffffff021916908373ffffffffffffffffffffffffffffffffffffffff1602179055508360029080519060200190620001a4929190620001fc565b508260039080519060200190620001bd929190620001fc565b50816005819055508060068190555060008060006101000a81548160ff02191690836002811115620001eb57fe5b0217905550505050505050620002ab565b828054600181600116156101000203166002900490600052602060002090601f016020900481019282601f106200023f57805160ff191683800117855562000270565b8280016001018555821562000270579182015b828111156200026f57825182559160200191906001019062000252565b5b5090506200027f919062000283565b5090565b620002a891905b80821115620002a45760008160009055506001016200028a565b5090565b90565b610a7f80620002bb6000396000f3fe6080604052600436106100c5576000357c0100000000000000000000000000000000000000000000000000000000900463ffffffff16806304c73a4b146100ca5780630a1b6632146101215780630c3f6acf1461014c5780636720ceb114610185578063747f33801461018f5780637b5c5883146101ba5780638da5cb5b14610209578063b67606d314610260578063c628d3f81461028b578063d56f011a146102b6578063e134e33d14610331578063f966ade7146103c1578063fa162aff146103cb575b600080fd5b3480156100d657600080fd5b506100df61045b565b604051808273ffffffffffffffffffffffffffffffffffffffff1673ffffffffffffffffffffffffffffffffffffffff16815260200191505060405180910390f35b34801561012d57600080fd5b50610136610481565b6040518082815260200191505060405180910390f35b34801561015857600080fd5b50610161610487565b6040518082600281111561017157fe5b60ff16815260200191505060405180910390f35b61018d610499565b005b34801561019b57600080fd5b506101a46106b3565b6040518082815260200191505060405180910390f35b3480156101c657600080fd5b506101f3600480360360208110156101dd57600080fd5b81019080803590602001909291905050506106b9565b6040518082815260200191505060405180910390f35b34801561021557600080fd5b5061021e6106dc565b604051808273ffffffffffffffffffffffffffffffffffffffff1673ffffffffffffffffffffffffffffffffffffffff16815260200191505060405180910390f35b34801561026c57600080fd5b50610275610702565b6040518082815260200191505060405180910390f35b34801561029757600080fd5b506102a061070f565b6040518082815260200191505060405180910390f35b3480156102c257600080fd5b506102ef600480360360208110156102d957600080fd5b8101908080359060200190929190505050610715565b604051808273ffffffffffffffffffffffffffffffffffffffff1673ffffffffffffffffffffffffffffffffffffffff16815260200191505060405180910390f35b34801561033d57600080fd5b50610346610753565b6040518080602001828103825283818151815260200191508051906020019080838360005b8381101561038657808201518184015260208101905061036b565b50505050905090810190601f1680156103b35780820380516001836020036101000a031916815260200191505b509250505060405180910390f35b6103c96107f1565b005b3480156103d757600080fd5b506103e06109b5565b6040518080602001828103825283818151815260200191508051906020019080838360005b83811015610420578082015181840152602081019050610405565b50505050905090810190601f16801561044d5780820380516001836020036101000a031916815260200191505b509250505060405180910390f35b600160009054906101000a900473ffffffffffffffffffffffffffffffffffffffff1681565b60045481565b6000809054906101000a900460ff1681565b600060028111156104a657fe5b6000809054906101000a900460ff1660028111156104c057fe5b1415156104cc57600080fd5b6000341115156104db57600080fd5b6004546005540334111515156104f057600080fd5b34600460008282540192505081905550600060646003340281151561051157fe5b0490506000813403905060073390806001815401808255809150509060018203906000526020600020016000909192909190916101000a81548173ffffffffffffffffffffffffffffffffffffffff021916908373ffffffffffffffffffffffffffffffffffffffff160217905550506008349080600181540180825580915050906001820390600052602060002001600090919290919091505550600160009054906101000a900473ffffffffffffffffffffffffffffffffffffffff1673ffffffffffffffffffffffffffffffffffffffff166108fc829081150290604051600060405180830381858888f19350505050158015610615573d6000803e3d6000fd5b50600060019054906101000a900473ffffffffffffffffffffffffffffffffffffffff1673ffffffffffffffffffffffffffffffffffffffff166108fc839081150290604051600060405180830381858888f1935050505015801561067e573d6000803e3d6000fd5b5060055460045414156106af5760016000806101000a81548160ff021916908360028111156106a957fe5b02179055505b5050565b60065481565b6008818154811015156106c857fe5b906000526020600020016000915090505481565b600060019054906101000a900473ffffffffffffffffffffffffffffffffffffffff1681565b6000600780549050905090565b60055481565b60078181548110151561072457fe5b906000526020600020016000915054906101000a900473ffffffffffffffffffffffffffffffffffffffff1681565b60028054600181600116156101000203166002900480601f0160208091040260200160405190810160405280929190818152602001828054600181600116156101000203166002900480156107e95780601f106107be576101008083540402835291602001916107e9565b820191906000526020600020905b8154815290600101906020018083116107cc57829003601f168201915b505050505081565b600160009054906101000a900473ffffffffffffffffffffffffffffffffffffffff1673ffffffffffffffffffffffffffffffffffffffff163373ffffffffffffffffffffffffffffffffffffffff1614151561084d57600080fd5b6001600281111561085a57fe5b6000809054906101000a900460ff16600281111561087457fe5b14151561088057600080fd5b6005543414151561089057600080fd5b60008090505b600780549050811015610949576007818154811015156108b257fe5b9060005260206000200160009054906101000a900473ffffffffffffffffffffffffffffffffffffffff1673ffffffffffffffffffffffffffffffffffffffff166108fc60088381548110151561090557fe5b90600052602060002001549081150290604051600060405180830381858888f1935050505015801561093b573d6000803e3d6000fd5b508080600101915050610896565b507fd0e40251d5411139d5a601946ad43ee7814fb5bc4a42d76731fc4df5c94f4700600554600780549050604051808381526020018281526020019250505060405180910390a160026000806101000a81548160ff021916908360028111156109ae57fe5b0217905550565b60038054600181600116156101000203166002900480601f016020809104026020016040519081016040528092919081815260200182805460018160011615610100020316600290048015610a4b5780601f10610a2057610100808354040283529160200191610a4b565b820191906000526020600020905b815481529060010190602001808311610a2e57829003601f168201915b50505050508156fea165627a7a72305820ef569530b6f457518d6504b23d2a6cf7a3bd232f81fea9aa2db21b06232aa2f00029",
  "source": "pragma solidity ^0.5.0;\n\ncontract LoanRequest {\n\n    enum State {FUNDING, PAYING_BACK, COMPLETE}\n    State public currentState;\n\n    address payable public owner;\n    address payable public requestee;\n    string public reason;\n    string public repaymentPlan;\n\n    uint public amountAccumulated; // since the contract balance is always 0 (upon receiving we immediately payout)\n    uint public amountRequested; // in wei\n    uint public phoneNumber;\n    address payable[] public loaners;\n    uint[] public loanerAmounts;\n\n    event LoanPaidOff(uint amountRequested, uint numLoaners);\n\n    modifier requesteeOnly() { // reusable condition checks\n        require(msg.sender == requestee);\n        _; // body of the function this modifier is tacked to\n    }\n\n\n    constructor(address payable _owner, address payable _requestee, string memory _reason, string memory _repaymentPlan, uint _amountRequested, uint _phoneNumber) public {\n        owner = _owner;\n        requestee = _requestee;\n        reason = _reason;\n        repaymentPlan = _repaymentPlan;\n        amountRequested = _amountRequested;\n        phoneNumber = _phoneNumber;\n\n        currentState = State.FUNDING;\n    }\n\n    function sendPayment() payable public {\n        // still requiring money\n        require(currentState == State.FUNDING);\n        // amount provided is less than the remaining amount\n        require(msg.value > 0);\n        require(msg.value <= (amountRequested - amountAccumulated));\n\n        amountAccumulated += msg.value;\n\n        // split up the msg.value and pay it out\n        uint fee = msg.value * 3 / 100;\n        uint keptamount = msg.value - fee;\n\n        // record this loaner and the amount they gave\n        loaners.push(msg.sender);\n        loanerAmounts.push(msg.value);\n\n        // transfer the funds over to the loan requestee\n        requestee.transfer(keptamount);\n\n        // transfer the servicefee to the owner\n        owner.transfer(fee);\n\n        if (amountAccumulated == amountRequested) {\n            currentState = State.PAYING_BACK;\n        }\n    }\n\n    function repayLoan() payable public requesteeOnly {\n        // requestee is ready to pay back the loaners\n        require(currentState == State.PAYING_BACK);\n        require(msg.value == amountRequested);\n\n        for (uint i=0; i < loaners.length; i++) {\n            loaners[i].transfer(loanerAmounts[i]);\n        }\n\n        // notify front end\n        emit LoanPaidOff(amountRequested, loaners.length);\n\n        // front end will make the sms\n\n        currentState = State.COMPLETE;\n    }\n\n    function numLoaners() view public returns(uint) {\n        return loaners.length;\n    }\n\n}",
  "sourcePath": "/Users/labuser/WebstormProjects/jiraniweb/contracts/LoanRequest.sol",
  "compiler": {
    "name": "solc",
    "version": "0.5.0+commit.1d4f565a.Emscripten.clang"
  },
  "schemaVersion": "3.0.2",
  "updatedAt": "2019-03-25T07:46:49.316Z",
  "devdoc": {
    "methods": {}
  },
  "userdoc": {
    "methods": {}
  }
}